:100000000C942A000C9434000C9434000C943400AA
:100010000C9434000C9434000C9434000C94340090
:100020000C9434000C9434000C9434000C94340080
:100030000C9434000C9434000C9434000C94340070
:100040000C9434000C9434000C9434000C94340060
:100050000C94340011241FBECFE5D8E0DEBFCDBF25
:100060000E949C000C94D4000C940000C19A8DE076
:100070008A95F1F70000C198089598B3937C98BBD6
:1000800084FDC29A85FDC39A86FDC49A87FDC59AF0
:100090000C943600CF93C82F0E943D008C2F829580
:1000A000807F0E943D00C598CF910895C0980C9420
:1000B0004A00C09A0C944A0083E30E94560082E3EF
:1000C0000E94560088E20E9456008CE00E94560072
:1000D00086E00E94560081E00E9456008DEE92E07C
:1000E0000197F1F700C00000089581E00E945600DA
:1000F0008DEE92E00197F1F700C000000895FC0139
:1001000080810C9459001816190614F40C94890077
:100110000895CF93DF93EC0197FD01969595879510
:100120000E948300CE0162E070E00E94AC00805D1E
:10013000DF91CF910C9459008FEF87BB0E945C0038
:100140000E94750086E190E00E94890081E30E9490
:10015000590080E090E0089597FB072E16F4009474
:1001600007D077FD09D00E94C00007FC05D03EF4FF
:10017000909581959F4F0895709561957F4F089553
:10018000AA1BBB1B51E107C0AA1FBB1FA617B707BD
:1001900010F0A61BB70B881F991F5A95A9F78095D9
:0C01A0009095BC01CD010895F894FFCFAC
:00000001FF
